{
  "_format": "hh-sol-artifact-1",
  "contractName": "EquipmentBorrowing",
  "sourceName": "contracts/EquipmentBorrowing.sol",
  "abi": [
    {
      "anonymous": false,
      "inputs": [
        {
          "indexed": false,
          "internalType": "uint256",
          "name": "id",
          "type": "uint256"
        },
        {
          "indexed": false,
          "internalType": "string",
          "name": "name",
          "type": "string"
        }
      ],
      "name": "EquipmentAdded",
      "type": "event"
    },
    {
      "anonymous": false,
      "inputs": [
        {
          "indexed": false,
          "internalType": "uint256",
          "name": "id",
          "type": "uint256"
        },
        {
          "indexed": false,
          "internalType": "address",
          "name": "borrower",
          "type": "address"
        }
      ],
      "name": "EquipmentBorrowed",
      "type": "event"
    },
    {
      "anonymous": false,
      "inputs": [
        {
          "indexed": false,
          "internalType": "uint256",
          "name": "id",
          "type": "uint256"
        },
        {
          "indexed": false,
          "internalType": "address",
          "name": "borrower",
          "type": "address"
        }
      ],
      "name": "EquipmentReturned",
      "type": "event"
    },
    {
      "inputs": [
        {
          "internalType": "string",
          "name": "_name",
          "type": "string"
        }
      ],
      "name": "addEquipment",
      "outputs": [],
      "stateMutability": "nonpayable",
      "type": "function"
    },
    {
      "inputs": [
        {
          "internalType": "uint256",
          "name": "_id",
          "type": "uint256"
        }
      ],
      "name": "borrowEquipment",
      "outputs": [],
      "stateMutability": "nonpayable",
      "type": "function"
    },
    {
      "inputs": [],
      "name": "equipmentCount",
      "outputs": [
        {
          "internalType": "uint256",
          "name": "",
          "type": "uint256"
        }
      ],
      "stateMutability": "view",
      "type": "function"
    },
    {
      "inputs": [
        {
          "internalType": "uint256",
          "name": "",
          "type": "uint256"
        }
      ],
      "name": "equipmentList",
      "outputs": [
        {
          "internalType": "uint256",
          "name": "id",
          "type": "uint256"
        },
        {
          "internalType": "string",
          "name": "name",
          "type": "string"
        },
        {
          "internalType": "bool",
          "name": "isBorrowed",
          "type": "bool"
        },
        {
          "internalType": "address",
          "name": "borrower",
          "type": "address"
        }
      ],
      "stateMutability": "view",
      "type": "function"
    },
    {
      "inputs": [
        {
          "internalType": "uint256",
          "name": "_id",
          "type": "uint256"
        }
      ],
      "name": "getEquipment",
      "outputs": [
        {
          "internalType": "uint256",
          "name": "",
          "type": "uint256"
        },
        {
          "internalType": "string",
          "name": "",
          "type": "string"
        },
        {
          "internalType": "bool",
          "name": "",
          "type": "bool"
        },
        {
          "internalType": "address",
          "name": "",
          "type": "address"
        }
      ],
      "stateMutability": "view",
      "type": "function"
    },
    {
      "inputs": [
        {
          "internalType": "uint256",
          "name": "_id",
          "type": "uint256"
        }
      ],
      "name": "returnEquipment",
      "outputs": [],
      "stateMutability": "nonpayable",
      "type": "function"
    }
  ],
  "bytecode": "0x608060405234801561001057600080fd5b50611126806100206000396000f3fe608060405234801561001057600080fd5b50600436106100625760003560e01c80631d9b15a71461006757806328512d2b1461009a5780632880f5ab146100b85780632e8a2883146100d45780636db64613146100f057806381dd2fa01461010c575b600080fd5b610081600480360381019061007c9190610885565b61013f565b60405161009194939291906109ad565b60405180910390f35b6100a2610224565b6040516100af91906109f9565b60405180910390f35b6100d260048036038101906100cd9190610b49565b61022a565b005b6100ee60048036038101906100e99190610885565b61035b565b005b61010a60048036038101906101059190610885565b6104cd565b005b61012660048036038101906101219190610885565b6106e2565b60405161013694939291906109ad565b60405180910390f35b600060205280600052604060002060009150905080600001549080600101805461016890610bc1565b80601f016020809104026020016040519081016040528092919081815260200182805461019490610bc1565b80156101e15780601f106101b6576101008083540402835291602001916101e1565b820191906000526020600020905b8154815290600101906020018083116101c457829003601f168201915b5050505050908060020160009054906101000a900460ff16908060020160019054906101000a900473ffffffffffffffffffffffffffffffffffffffff16905084565b60015481565b6001600081548092919061023d90610c21565b919050555060405180608001604052806001548152602001828152602001600015158152602001600073ffffffffffffffffffffffffffffffffffffffff1681525060008060015481526020019081526020016000206000820151816000015560208201518160010190816102b29190610e15565b5060408201518160020160006101000a81548160ff02191690831515021790555060608201518160020160016101000a81548173ffffffffffffffffffffffffffffffffffffffff021916908373ffffffffffffffffffffffffffffffffffffffff1602179055509050507f210c3bdafd83125ef43f2e5b8a16dc45efd7816ce38ed4fad17f40f56e68f9d560015482604051610350929190610ee7565b60405180910390a150565b60008111801561036d57506001548111155b6103ac576040517f08c379a00000000000000000000000000000000000000000000000000000000081526004016103a390610f63565b60405180910390fd5b60008082815260200190815260200160002060020160009054906101000a900460ff161561040f576040517f08c379a000000000000000000000000000000000000000000000000000000000815260040161040690610fcf565b60405180910390fd5b600160008083815260200190815260200160002060020160006101000a81548160ff0219169083151502179055503360008083815260200190815260200160002060020160016101000a81548173ffffffffffffffffffffffffffffffffffffffff021916908373ffffffffffffffffffffffffffffffffffffffff1602179055507fabee7aab93c9a322a7548677cbff1f23bd6103256c5c049ca446f87a2a9b83e881336040516104c2929190610fef565b60405180910390a150565b6000811180156104df57506001548111155b61051e576040517f08c379a000000000000000000000000000000000000000000000000000000000815260040161051590610f63565b60405180910390fd5b60008082815260200190815260200160002060020160009054906101000a900460ff16610580576040517f08c379a000000000000000000000000000000000000000000000000000000000815260040161057790611064565b60405180910390fd5b3373ffffffffffffffffffffffffffffffffffffffff1660008083815260200190815260200160002060020160019054906101000a900473ffffffffffffffffffffffffffffffffffffffff1673ffffffffffffffffffffffffffffffffffffffff1614610623576040517f08c379a000000000000000000000000000000000000000000000000000000000815260040161061a906110d0565b60405180910390fd5b600080600083815260200190815260200160002060020160006101000a81548160ff021916908315150217905550600080600083815260200190815260200160002060020160016101000a81548173ffffffffffffffffffffffffffffffffffffffff021916908373ffffffffffffffffffffffffffffffffffffffff1602179055507f05909368b77ddb069c4677a19ab0b404edaf0bdfd8f85dc752367e1ba1eca40681336040516106d7929190610fef565b60405180910390a150565b6000606060008060008060008781526020019081526020016000206040518060800160405290816000820154815260200160018201805461072290610bc1565b80601f016020809104026020016040519081016040528092919081815260200182805461074e90610bc1565b801561079b5780601f106107705761010080835404028352916020019161079b565b820191906000526020600020905b81548152906001019060200180831161077e57829003601f168201915b505050505081526020016002820160009054906101000a900460ff161515151581526020016002820160019054906101000a900473ffffffffffffffffffffffffffffffffffffffff1673ffffffffffffffffffffffffffffffffffffffff1673ffffffffffffffffffffffffffffffffffffffff1681525050905080600001518160200151826040015183606001519450945094509450509193509193565b6000604051905090565b600080fd5b600080fd5b6000819050919050565b6108628161084f565b811461086d57600080fd5b50565b60008135905061087f81610859565b92915050565b60006020828403121561089b5761089a610845565b5b60006108a984828501610870565b91505092915050565b6108bb8161084f565b82525050565b600081519050919050565b600082825260208201905092915050565b60005b838110156108fb5780820151818401526020810190506108e0565b60008484015250505050565b6000601f19601f8301169050919050565b6000610923826108c1565b61092d81856108cc565b935061093d8185602086016108dd565b61094681610907565b840191505092915050565b60008115159050919050565b61096681610951565b82525050565b600073ffffffffffffffffffffffffffffffffffffffff82169050919050565b60006109978261096c565b9050919050565b6109a78161098c565b82525050565b60006080820190506109c260008301876108b2565b81810360208301526109d48186610918565b90506109e3604083018561095d565b6109f0606083018461099e565b95945050505050565b6000602082019050610a0e60008301846108b2565b92915050565b600080fd5b600080fd5b7f4e487b7100000000000000000000000000000000000000000000000000000000600052604160045260246000fd5b610a5682610907565b810181811067ffffffffffffffff82111715610a7557610a74610a1e565b5b80604052505050565b6000610a8861083b565b9050610a948282610a4d565b919050565b600067ffffffffffffffff821115610ab457610ab3610a1e565b5b610abd82610907565b9050602081019050919050565b82818337600083830152505050565b6000610aec610ae784610a99565b610a7e565b905082815260208101848484011115610b0857610b07610a19565b5b610b13848285610aca565b509392505050565b600082601f830112610b3057610b2f610a14565b5b8135610b40848260208601610ad9565b91505092915050565b600060208284031215610b5f57610b5e610845565b5b600082013567ffffffffffffffff811115610b7d57610b7c61084a565b5b610b8984828501610b1b565b91505092915050565b7f4e487b7100000000000000000000000000000000000000000000000000000000600052602260045260246000fd5b60006002820490506001821680610bd957607f821691505b602082108103610bec57610beb610b92565b5b50919050565b7f4e487b7100000000000000000000000000000000000000000000000000000000600052601160045260246000fd5b6000610c2c8261084f565b91507fffffffffffffffffffffffffffffffffffffffffffffffffffffffffffffffff8203610c5e57610c5d610bf2565b5b600182019050919050565b60008190508160005260206000209050919050565b60006020601f8301049050919050565b600082821b905092915050565b600060088302610ccb7fffffffffffffffffffffffffffffffffffffffffffffffffffffffffffffffff82610c8e565b610cd58683610c8e565b95508019841693508086168417925050509392505050565b6000819050919050565b6000610d12610d0d610d088461084f565b610ced565b61084f565b9050919050565b6000819050919050565b610d2c83610cf7565b610d40610d3882610d19565b848454610c9b565b825550505050565b600090565b610d55610d48565b610d60818484610d23565b505050565b5b81811015610d8457610d79600082610d4d565b600181019050610d66565b5050565b601f821115610dc957610d9a81610c69565b610da384610c7e565b81016020851015610db2578190505b610dc6610dbe85610c7e565b830182610d65565b50505b505050565b600082821c905092915050565b6000610dec60001984600802610dce565b1980831691505092915050565b6000610e058383610ddb565b9150826002028217905092915050565b610e1e826108c1565b67ffffffffffffffff811115610e3757610e36610a1e565b5b610e418254610bc1565b610e4c828285610d88565b600060209050601f831160018114610e7f5760008415610e6d578287015190505b610e778582610df9565b865550610edf565b601f198416610e8d86610c69565b60005b82811015610eb557848901518255600182019150602085019450602081019050610e90565b86831015610ed25784890151610ece601f891682610ddb565b8355505b6001600288020188555050505b505050505050565b6000604082019050610efc60008301856108b2565b8181036020830152610f0e8184610918565b90509392505050565b7f496e76616c696420494400000000000000000000000000000000000000000000600082015250565b6000610f4d600a836108cc565b9150610f5882610f17565b602082019050919050565b60006020820190508181036000830152610f7c81610f40565b9050919050565b7f416c726561647920626f72726f77656400000000000000000000000000000000600082015250565b6000610fb96010836108cc565b9150610fc482610f83565b602082019050919050565b60006020820190508181036000830152610fe881610fac565b9050919050565b600060408201905061100460008301856108b2565b611011602083018461099e565b9392505050565b7f4e6f7420626f72726f7765640000000000000000000000000000000000000000600082015250565b600061104e600c836108cc565b915061105982611018565b602082019050919050565b6000602082019050818103600083015261107d81611041565b9050919050565b7f4e6f7420796f7572206974656d00000000000000000000000000000000000000600082015250565b60006110ba600d836108cc565b91506110c582611084565b602082019050919050565b600060208201905081810360008301526110e9816110ad565b905091905056fea26469706673582212201828e9df71ce2a9af749c3f79f824554b79a15060e7239237aa4c57e3b2f600264736f6c63430008140033",
  "linkReferences": {},
  "deployedLinkReferences": {}
}